{
  "transactions": [
    {
      "hash": "0x62a9e7f0af68f5bb21f40a1616ecccccbaedac04cc6b14536880272cb90d3f1c",
      "transactionType": "CALL",
      "contractName": null,
      "contractAddress": "0xa1fa1fadd83d7958c145f731d0fa51a8e53bcc85",
      "function": "setPhase(uint16,uint256,uint256)",
      "arguments": [
        "1",
        "500",
        "500"
      ],
      "transaction": {
        "from": "0xc2ef31f862870114253691beead9eb45f993f179",
        "to": "0xa1fa1fadd83d7958c145f731d0fa51a8e53bcc85",
        "gas": "0x1954c",
        "value": "0x0",
        "input": "0xe34c061e000000000000000000000000000000000000000000000000000000000000000100000000000000000000000000000000000000000000000000000000000001f400000000000000000000000000000000000000000000000000000000000001f4",
        "nonce": "0xb",
        "chainId": "0x14a34"
      },
      "additionalContracts": [],
      "isFixedGasLimit": false
    }
  ],
  "receipts": [
    {
      "status": "0x1",
      "cumulativeGasUsed": "0x117c198",
      "logs": [
        {
          "address": "0xa1fa1fadd83d7958c145f731d0fa51a8e53bcc85",
          "topics": [
            "0x5303464ea1514ac1fdbe66333ff4cfd517b6c980d9a26fa34d4ea3a42d5fb687"
          ],
          "data": "0x000000000000000000000000000000000000000000000000000000000000000100000000000000000000000000000000000000000000000000000000000001f400000000000000000000000000000000000000000000000000000000000001f4",
          "blockHash": "0x2e155e3838ac15148ec76c6d71708bf5339f7cab6c03f46413077edb17b10d53",
          "blockNumber": "0xfc98b1",
          "transactionHash": "0x62a9e7f0af68f5bb21f40a1616ecccccbaedac04cc6b14536880272cb90d3f1c",
          "transactionIndex": "0x37",
          "logIndex": "0x131",
          "removed": false
        }
      ],
      "logsBloom": "0x00000000000000000000040000000000000000000000000000000000000000000000000000000000000000000000000000000000000000000000000000000000000000000040000000000000000000000000000000000000000000000000000000000000000000000000000000000000000000000000000000000000000000000000000000000000000000000000000000000000000000000000000000000000000000000000000000000000000000000000000010000000000000000000400000000000000000000000200000000000000000000000000000000000000000000000000000000000000000000000000000000000000000000000000020000000",
      "type": "0x2",
      "transactionHash": "0x62a9e7f0af68f5bb21f40a1616ecccccbaedac04cc6b14536880272cb90d3f1c",
      "transactionIndex": "0x37",
      "blockHash": "0x2e155e3838ac15148ec76c6d71708bf5339f7cab6c03f46413077edb17b10d53",
      "blockNumber": "0xfc98b1",
      "gasUsed": "0x1256f",
      "effectiveGasPrice": "0x31595182",
      "from": "0xc2ef31f862870114253691beead9eb45f993f179",
      "to": "0xa1fa1fadd83d7958c145f731d0fa51a8e53bcc85",
      "contractAddress": null,
      "l1BaseFeeScalar": "0x44d",
      "l1BlobBaseFee": "0x1",
      "l1BlobBaseFeeScalar": "0xa118b",
      "l1Fee": "0x262f5dad3",
      "l1GasPrice": "0x15ad23f63",
      "l1GasUsed": "0x640"
    }
  ],
  "libraries": [],
  "pending": [],
  "returns": {},
  "timestamp": 1728876614,
  "chain": 84532,
  "commit": "345626b"
}